{
  "contractName": "ShippingContract",
  "abi": [
    {
      "inputs": [
        {
          "internalType": "address",
          "name": "_buyerAddr",
          "type": "address"
        }
      ],
      "payable": true,
      "stateMutability": "payable",
      "type": "constructor"
    },
    {
      "anonymous": false,
      "inputs": [
        {
          "indexed": false,
          "internalType": "address",
          "name": "buyer",
          "type": "address"
        },
        {
          "indexed": false,
          "internalType": "string",
          "name": "goods",
          "type": "string"
        },
        {
          "indexed": false,
          "internalType": "uint256",
          "name": "quantity",
          "type": "uint256"
        },
        {
          "indexed": false,
          "internalType": "uint256",
          "name": "orderno",
          "type": "uint256"
        }
      ],
      "name": "OrderSent",
      "type": "event"
    },
    {
      "constant": true,
      "inputs": [],
      "name": "buyer",
      "outputs": [
        {
          "internalType": "address",
          "name": "",
          "type": "address"
        }
      ],
      "payable": false,
      "stateMutability": "view",
      "type": "function"
    },
    {
      "constant": true,
      "inputs": [],
      "name": "owner",
      "outputs": [
        {
          "internalType": "address",
          "name": "",
          "type": "address"
        }
      ],
      "payable": false,
      "stateMutability": "view",
      "type": "function"
    }
  ],
  "bytecode": "0x60806040526040516102173803806102178339818101604052602081101561002657600080fd5b8101908080519060200190929190505050336000806101000a81548173ffffffffffffffffffffffffffffffffffffffff021916908373ffffffffffffffffffffffffffffffffffffffff16021790555080600160006101000a81548173ffffffffffffffffffffffffffffffffffffffff021916908373ffffffffffffffffffffffffffffffffffffffff1602179055505061014f806100c86000396000f3fe608060405234801561001057600080fd5b50600436106100365760003560e01c80637150d8ae1461003b5780638da5cb5b14610085575b600080fd5b6100436100cf565b604051808273ffffffffffffffffffffffffffffffffffffffff1673ffffffffffffffffffffffffffffffffffffffff16815260200191505060405180910390f35b61008d6100f5565b604051808273ffffffffffffffffffffffffffffffffffffffff1673ffffffffffffffffffffffffffffffffffffffff16815260200191505060405180910390f35b600160009054906101000a900473ffffffffffffffffffffffffffffffffffffffff1681565b6000809054906101000a900473ffffffffffffffffffffffffffffffffffffffff168156fea265627a7a72315820b36105fd2284d3f6e2d342af46d6b6ad1df0fee7892ece840f0768c53dea813664736f6c63430005100032",
  "source": "// SPDX-License-Identifier: MIT\r\npragma solidity >=0.4.22 <0.9.0;\r\n\r\ncontract ShippingContract {\r\n\r\n  // Status du contrat\r\n  enum Status {Pending, Shipped, Delivered}\r\n  // Adresse du vendeur\r\n  address public owner;\r\n\r\n  // Adresse de l'acheteur\r\n  address public buyer;\r\n\r\n  /// Compteur de commande\r\n  uint compteurCommande;\r\n  \r\n  // Structure de l'acheteur\r\n  struct Buyer{\r\n      address addr;\r\n      string name;\r\n      bool init;\r\n  }\r\n\r\n  // Structure de la commande\r\n  struct Order{\r\n    string produit;\r\n    uint number;\r\n  }\r\n\r\n   constructor (address _buyerAddr) public payable {\r\n        owner = msg.sender;\r\n        buyer = _buyerAddr;\r\n    }\r\n\r\n  /// The mapping to store orders\r\n  mapping (uint => Order) orders;\r\n\r\n\r\n  modifier restricted() {\r\n    require(\r\n      msg.sender == owner,\r\n      \"This function is restricted to the contract's owner\"\r\n    );\r\n    _;\r\n  }\r\n   \r\n  /// Event triggered for every new order\r\n  event OrderSent(address buyer, string goods, uint quantity, uint orderno);\r\n\r\n}\r\n",
  "sourcePath": "C:/Users/Lam/Desktop/RenduBlockChain/contracts/ShippingContract.sol",
  "compiler": {
    "name": "solc",
    "version": "0.5.16+commit.9c3226ce.Emscripten.clang"
  },
  "schemaVersion": "3.3.4",
  "updatedAt": "2021-04-22T13:54:02.533Z",
  "devdoc": {
    "methods": {}
  },
  "userdoc": {
    "methods": {}
  }
}